{
  "contractName": "Election",
  "abi": [
    {
      "constant": true,
      "inputs": [
        {
          "name": "",
          "type": "address"
        }
      ],
      "name": "votesCasted",
      "outputs": [
        {
          "name": "",
          "type": "uint256"
        }
      ],
      "payable": false,
      "stateMutability": "view",
      "type": "function",
      "signature": "0x1683686e"
    },
    {
      "constant": true,
      "inputs": [],
      "name": "candidatesCount",
      "outputs": [
        {
          "name": "",
          "type": "uint256"
        }
      ],
      "payable": false,
      "stateMutability": "view",
      "type": "function",
      "signature": "0x2d35a8a2"
    },
    {
      "constant": true,
      "inputs": [
        {
          "name": "",
          "type": "uint256"
        }
      ],
      "name": "candidates",
      "outputs": [
        {
          "name": "id",
          "type": "uint256"
        },
        {
          "name": "name",
          "type": "string"
        },
        {
          "name": "voteCount",
          "type": "uint256"
        }
      ],
      "payable": false,
      "stateMutability": "view",
      "type": "function",
      "signature": "0x3477ee2e"
    },
    {
      "anonymous": false,
      "inputs": [
        {
          "indexed": false,
          "name": "_name",
          "type": "string"
        }
      ],
      "name": "CandidateAdded",
      "type": "event",
      "signature": "0xf29562dad1599aea0ebb142466120aab326d5efa8f839df82a9c064bf78e8938"
    },
    {
      "anonymous": false,
      "inputs": [
        {
          "indexed": false,
          "name": "id",
          "type": "uint256"
        }
      ],
      "name": "VoteCasted",
      "type": "event",
      "signature": "0x94b9b209597b37568a0fb4b924237e6e679e8e7bb88cf375dbcf4229c2d5e642"
    },
    {
      "anonymous": false,
      "inputs": [
        {
          "indexed": false,
          "name": "voted",
          "type": "bool"
        }
      ],
      "name": "HasCastedVote",
      "type": "event",
      "signature": "0x8f0c806b43352e08c2536f73e8307ae5f96d5fe582e2da7518e629c1176307b4"
    },
    {
      "constant": false,
      "inputs": [
        {
          "name": "_name",
          "type": "string"
        }
      ],
      "name": "addCandidate",
      "outputs": [],
      "payable": false,
      "stateMutability": "nonpayable",
      "type": "function",
      "signature": "0x462e91ec"
    },
    {
      "constant": false,
      "inputs": [
        {
          "name": "_candidateId",
          "type": "uint256"
        }
      ],
      "name": "castVote",
      "outputs": [],
      "payable": false,
      "stateMutability": "nonpayable",
      "type": "function",
      "signature": "0x3eb76b9c"
    },
    {
      "constant": false,
      "inputs": [],
      "name": "hasVoted",
      "outputs": [],
      "payable": false,
      "stateMutability": "nonpayable",
      "type": "function",
      "signature": "0x64821338"
    }
  ],
  "bytecode": "0x608060405234801561001057600080fd5b50610757806100206000396000f3fe608060405260043610610078576000357c0100000000000000000000000000000000000000000000000000000000900463ffffffff1680631683686e1461007d5780632d35a8a2146100e25780633477ee2e1461010d5780633eb76b9c146101cf578063462e91ec1461020a57806364821338146102d2575b600080fd5b34801561008957600080fd5b506100cc600480360360208110156100a057600080fd5b81019080803573ffffffffffffffffffffffffffffffffffffffff1690602001909291905050506102e9565b6040518082815260200191505060405180910390f35b3480156100ee57600080fd5b506100f7610301565b6040518082815260200191505060405180910390f35b34801561011957600080fd5b506101466004803603602081101561013057600080fd5b8101908080359060200190929190505050610307565b6040518084815260200180602001838152602001828103825284818151815260200191508051906020019080838360005b83811015610192578082015181840152602081019050610177565b50505050905090810190601f1680156101bf5780820380516001836020036101000a031916815260200191505b5094505050505060405180910390f35b3480156101db57600080fd5b50610208600480360360208110156101f257600080fd5b81019080803590602001909291905050506103c9565b005b34801561021657600080fd5b506102d06004803603602081101561022d57600080fd5b810190808035906020019064010000000081111561024a57600080fd5b82018360208201111561025c57600080fd5b8035906020019184600183028401116401000000008311171561027e57600080fd5b91908080601f016020809104026020016040519081016040528093929190818152602001838380828437600081840152601f19601f8201169050808301925050505050505091929192905050506104d7565b005b3480156102de57600080fd5b506102e7610606565b005b60016020528060005260406000206000915090505481565b60025481565b6000602052806000526040600020600091509050806000015490806001018054600181600116156101000203166002900480601f0160208091040260200160405190810160405280929190818152602001828054600181600116156101000203166002900480156103b95780601f1061038e576101008083540402835291602001916103b9565b820191906000526020600020905b81548152906001019060200180831161039c57829003601f168201915b5050505050908060020154905083565b6000811180156103db57506002548111155b15156103e657600080fd5b6000600160003373ffffffffffffffffffffffffffffffffffffffff1673ffffffffffffffffffffffffffffffffffffffff1681526020019081526020016000205414151561043457600080fd5b80600160003373ffffffffffffffffffffffffffffffffffffffff1673ffffffffffffffffffffffffffffffffffffffff16815260200190815260200160002081905550600080828152602001908152602001600020600201600081548092919060010191905055507f94b9b209597b37568a0fb4b924237e6e679e8e7bb88cf375dbcf4229c2d5e642816040518082815260200191505060405180910390a150565b606081905060008151141515156104ed57600080fd5b600260008154809291906001019190505550606060405190810160405280600254815260200183815260200160008152506000806002548152602001908152602001600020600082015181600001556020820151816001019080519060200190610558929190610686565b50604082015181600201559050507ff29562dad1599aea0ebb142466120aab326d5efa8f839df82a9c064bf78e8938826040518080602001828103825283818151815260200191508051906020019080838360005b838110156105c85780820151818401526020810190506105ad565b50505050905090810190601f1680156105f55780820380516001836020036101000a031916815260200191505b509250505060405180910390a15050565b7f8f0c806b43352e08c2536f73e8307ae5f96d5fe582e2da7518e629c1176307b46000600160003373ffffffffffffffffffffffffffffffffffffffff1673ffffffffffffffffffffffffffffffffffffffff168152602001908152602001600020541415604051808215151515815260200191505060405180910390a1565b828054600181600116156101000203166002900490600052602060002090601f016020900481019282601f106106c757805160ff19168380011785556106f5565b828001600101855582156106f5579182015b828111156106f45782518255916020019190600101906106d9565b5b5090506107029190610706565b5090565b61072891905b8082111561072457600081600090555060010161070c565b5090565b9056fea165627a7a723058208fb802227bc594b666a4a3b3bb82f59c112454d984e6a148d9f21f118b5048b00029",
  "source": "pragma solidity ^0.5.0;\n\n\ncontract Election {\n    \n    //Constructor\n\n    struct Candidate {\n        uint id;\n        string name;\n        uint voteCount;\n    }\n\n\n    event CandidateAdded(string _name);\n    event VoteCasted(uint id);\n    event HasCastedVote(bool voted);\n\n    mapping (uint=>Candidate) public candidates;\n    mapping (address=>uint) public votesCasted;\n\n    uint public candidatesCount; //Counter Caching no way to know size\n\n\n    \n\n\n    function addCandidate(string memory _name) public {\n        bytes memory nameBytes = bytes(_name);\n        require(nameBytes.length != 0);\n        candidatesCount++;\n        candidates[candidatesCount] = Candidate({id:candidatesCount,name:_name,voteCount:0});\n        emit CandidateAdded(_name);\n    }\n\n    function castVote(uint _candidateId) public  {\n        require(_candidateId > 0 && _candidateId <= candidatesCount);\n        require(votesCasted[msg.sender] == 0);\n        votesCasted[msg.sender] = _candidateId;\n        candidates[_candidateId].voteCount ++;\n        emit VoteCasted(_candidateId);\n    }\n\n    function hasVoted() public {\n        emit HasCastedVote(votesCasted[msg.sender] != 0);\n    }\n\n}",
  "sourcePath": "/media/nshmadhani/Work5/Projects/Blockchain/blockchain-projects/evoting/contracts/Election.sol",
  "compiler": {
    "name": "solc",
    "version": "0.5.0+commit.1d4f565a.Emscripten.clang"
  },
  "schemaVersion": "3.0.0",
  "updatedAt": "2019-03-26T08:21:26.532Z",
  "devdoc": {
    "methods": {}
  },
  "userdoc": {
    "methods": {}
  }
}